:1000000000308A001828000012308400000803190C
:10001000172801308D008C018C0B0C288D0B0B28C0
:100020004A308C008C0B12281528800B09280800F8
:100030001F308305003083168600860183128601F7
:1000400000308316860083120614831686008312FE
:10005000861614309100FA3092000420910B2B2860
:1000600000308316860083120610831686008312E2
:10007000861208309100FA3092000420910B3B2840
:10008000003083168600831286148316860083123E
:1000900006160C309100FA3092000420910B4B2888
:1000A0000030831686008312861083168600831222
:1000B000061208309100FA3092000420910B5B2860
:1000C000003083168600831206158316860083127D
:1000D000861514309100FA3092000420910B6B28A1
:1000E0000030831686008312061183168600831261
:1000F000861104309100FA3092000420910B7B2885
:040100002028630050
:02400E00F13F80
:00000001FF
;PIC16F84
;CRC=7308  CREATED="09-Tem-23 13:02"
